{
  "address": "0xf0666338360Da55071762286Cb9C615BAcaAE6F8",
  "abi": [
    {
      "inputs": [
        {
          "internalType": "string",
          "name": "_baseURI",
          "type": "string"
        }
      ],
      "stateMutability": "nonpayable",
      "type": "constructor"
    },
    {
      "anonymous": false,
      "inputs": [
        {
          "indexed": true,
          "internalType": "address",
          "name": "owner",
          "type": "address"
        },
        {
          "indexed": true,
          "internalType": "address",
          "name": "approved",
          "type": "address"
        },
        {
          "indexed": true,
          "internalType": "uint256",
          "name": "tokenId",
          "type": "uint256"
        }
      ],
      "name": "Approval",
      "type": "event"
    },
    {
      "anonymous": false,
      "inputs": [
        {
          "indexed": true,
          "internalType": "address",
          "name": "owner",
          "type": "address"
        },
        {
          "indexed": true,
          "internalType": "address",
          "name": "operator",
          "type": "address"
        },
        {
          "indexed": false,
          "internalType": "bool",
          "name": "approved",
          "type": "bool"
        }
      ],
      "name": "ApprovalForAll",
      "type": "event"
    },
    {
      "anonymous": false,
      "inputs": [
        {
          "indexed": true,
          "internalType": "address",
          "name": "from",
          "type": "address"
        },
        {
          "indexed": true,
          "internalType": "address",
          "name": "to",
          "type": "address"
        },
        {
          "indexed": true,
          "internalType": "uint256",
          "name": "tokenId",
          "type": "uint256"
        }
      ],
      "name": "Transfer",
      "type": "event"
    },
    {
      "inputs": [
        {
          "internalType": "address",
          "name": "to",
          "type": "address"
        },
        {
          "internalType": "uint256",
          "name": "tokenId",
          "type": "uint256"
        }
      ],
      "name": "approve",
      "outputs": [],
      "stateMutability": "nonpayable",
      "type": "function"
    },
    {
      "inputs": [
        {
          "internalType": "address",
          "name": "owner",
          "type": "address"
        }
      ],
      "name": "balanceOf",
      "outputs": [
        {
          "internalType": "uint256",
          "name": "",
          "type": "uint256"
        }
      ],
      "stateMutability": "view",
      "type": "function"
    },
    {
      "inputs": [
        {
          "internalType": "uint256",
          "name": "tokenId",
          "type": "uint256"
        }
      ],
      "name": "getApproved",
      "outputs": [
        {
          "internalType": "address",
          "name": "",
          "type": "address"
        }
      ],
      "stateMutability": "view",
      "type": "function"
    },
    {
      "inputs": [],
      "name": "getTokenId",
      "outputs": [
        {
          "internalType": "uint256",
          "name": "",
          "type": "uint256"
        }
      ],
      "stateMutability": "view",
      "type": "function"
    },
    {
      "inputs": [
        {
          "internalType": "address",
          "name": "owner",
          "type": "address"
        },
        {
          "internalType": "address",
          "name": "operator",
          "type": "address"
        }
      ],
      "name": "isApprovedForAll",
      "outputs": [
        {
          "internalType": "bool",
          "name": "",
          "type": "bool"
        }
      ],
      "stateMutability": "view",
      "type": "function"
    },
    {
      "inputs": [],
      "name": "name",
      "outputs": [
        {
          "internalType": "string",
          "name": "",
          "type": "string"
        }
      ],
      "stateMutability": "view",
      "type": "function"
    },
    {
      "inputs": [
        {
          "internalType": "uint256",
          "name": "tokenId",
          "type": "uint256"
        }
      ],
      "name": "ownerOf",
      "outputs": [
        {
          "internalType": "address",
          "name": "",
          "type": "address"
        }
      ],
      "stateMutability": "view",
      "type": "function"
    },
    {
      "inputs": [
        {
          "internalType": "address",
          "name": "to",
          "type": "address"
        }
      ],
      "name": "safeMint",
      "outputs": [],
      "stateMutability": "nonpayable",
      "type": "function"
    },
    {
      "inputs": [
        {
          "internalType": "address",
          "name": "from",
          "type": "address"
        },
        {
          "internalType": "address",
          "name": "to",
          "type": "address"
        },
        {
          "internalType": "uint256",
          "name": "tokenId",
          "type": "uint256"
        }
      ],
      "name": "safeTransferFrom",
      "outputs": [],
      "stateMutability": "nonpayable",
      "type": "function"
    },
    {
      "inputs": [
        {
          "internalType": "address",
          "name": "from",
          "type": "address"
        },
        {
          "internalType": "address",
          "name": "to",
          "type": "address"
        },
        {
          "internalType": "uint256",
          "name": "tokenId",
          "type": "uint256"
        },
        {
          "internalType": "bytes",
          "name": "data",
          "type": "bytes"
        }
      ],
      "name": "safeTransferFrom",
      "outputs": [],
      "stateMutability": "nonpayable",
      "type": "function"
    },
    {
      "inputs": [
        {
          "internalType": "address",
          "name": "operator",
          "type": "address"
        },
        {
          "internalType": "bool",
          "name": "approved",
          "type": "bool"
        }
      ],
      "name": "setApprovalForAll",
      "outputs": [],
      "stateMutability": "nonpayable",
      "type": "function"
    },
    {
      "inputs": [
        {
          "internalType": "bytes4",
          "name": "interfaceId",
          "type": "bytes4"
        }
      ],
      "name": "supportsInterface",
      "outputs": [
        {
          "internalType": "bool",
          "name": "",
          "type": "bool"
        }
      ],
      "stateMutability": "view",
      "type": "function"
    },
    {
      "inputs": [],
      "name": "symbol",
      "outputs": [
        {
          "internalType": "string",
          "name": "",
          "type": "string"
        }
      ],
      "stateMutability": "view",
      "type": "function"
    },
    {
      "inputs": [
        {
          "internalType": "uint256",
          "name": "tokenId",
          "type": "uint256"
        }
      ],
      "name": "tokenURI",
      "outputs": [
        {
          "internalType": "string",
          "name": "",
          "type": "string"
        }
      ],
      "stateMutability": "view",
      "type": "function"
    },
    {
      "inputs": [
        {
          "internalType": "address",
          "name": "from",
          "type": "address"
        },
        {
          "internalType": "address",
          "name": "to",
          "type": "address"
        },
        {
          "internalType": "uint256",
          "name": "tokenId",
          "type": "uint256"
        }
      ],
      "name": "transferFrom",
      "outputs": [],
      "stateMutability": "nonpayable",
      "type": "function"
    }
  ],
  "transactionHash": "0x96d924ed0dace4d288f1669bb33a780099ac4a5c014cd19916a75b6927777e72",
  "args": [
    ""
  ],
  "numDeployments": 1,
  "solcInputHash": "3e77c2dbb15d090f40619fc9177a4064",
  "bytecode": "0x60806040523480156200001157600080fd5b5060405162002ade38038062002ade833981810160405281019062000037919062000344565b6040518060400160405280600c81526020017f5374616b6561626c654e465400000000000000000000000000000000000000008152506040518060400160405280600381526020017f53544b00000000000000000000000000000000000000000000000000000000008152508160009080519060200190620000bb929190620000f7565b508060019080519060200190620000d4929190620000f7565b5050508060079080519060200190620000ef929190620000f7565b5050620003fa565b8280546200010590620003c4565b90600052602060002090601f01602090048101928262000129576000855562000175565b82601f106200014457805160ff191683800117855562000175565b8280016001018555821562000175579182015b828111156200017457825182559160200191906001019062000157565b5b50905062000184919062000188565b5090565b5b80821115620001a357600081600090555060010162000189565b5090565b6000604051905090565b600080fd5b600080fd5b600080fd5b600080fd5b6000601f19601f8301169050919050565b7f4e487b7100000000000000000000000000000000000000000000000000000000600052604160045260246000fd5b6200021082620001c5565b810181811067ffffffffffffffff82111715620002325762000231620001d6565b5b80604052505050565b600062000247620001a7565b905062000255828262000205565b919050565b600067ffffffffffffffff821115620002785762000277620001d6565b5b6200028382620001c5565b9050602081019050919050565b60005b83811015620002b057808201518184015260208101905062000293565b83811115620002c0576000848401525b50505050565b6000620002dd620002d7846200025a565b6200023b565b905082815260208101848484011115620002fc57620002fb620001c0565b5b6200030984828562000290565b509392505050565b600082601f830112620003295762000328620001bb565b5b81516200033b848260208601620002c6565b91505092915050565b6000602082840312156200035d576200035c620001b1565b5b600082015167ffffffffffffffff8111156200037e576200037d620001b6565b5b6200038c8482850162000311565b91505092915050565b7f4e487b7100000000000000000000000000000000000000000000000000000000600052602260045260246000fd5b60006002820490506001821680620003dd57607f821691505b60208210811415620003f457620003f362000395565b5b50919050565b6126d4806200040a6000396000f3fe608060405234801561001057600080fd5b50600436106100f55760003560e01c806342842e0e11610097578063a22cb46511610066578063a22cb46514610284578063b88d4fde146102a0578063c87b56dd146102bc578063e985e9c5146102ec576100f5565b806342842e0e146101ea5780636352211e1461020657806370a082311461023657806395d89b4114610266576100f5565b8063081812fc116100d3578063081812fc14610166578063095ea7b31461019657806323b872dd146101b257806340d097c3146101ce576100f5565b8063010a38f5146100fa57806301ffc9a71461011857806306fdde0314610148575b600080fd5b61010261031c565b60405161010f91906116f5565b60405180910390f35b610132600480360381019061012d919061177c565b610326565b60405161013f91906117c4565b60405180910390f35b610150610408565b60405161015d9190611878565b60405180910390f35b610180600480360381019061017b91906118c6565b61049a565b60405161018d9190611934565b60405180910390f35b6101b060048036038101906101ab919061197b565b6104e0565b005b6101cc60048036038101906101c791906119bb565b6105f8565b005b6101e860048036038101906101e39190611a0e565b610658565b005b61020460048036038101906101ff91906119bb565b610696565b005b610220600480360381019061021b91906118c6565b6106b6565b60405161022d9190611934565b60405180910390f35b610250600480360381019061024b9190611a0e565b610768565b60405161025d91906116f5565b60405180910390f35b61026e610820565b60405161027b9190611878565b60405180910390f35b61029e60048036038101906102999190611a67565b6108b2565b005b6102ba60048036038101906102b59190611bdc565b6108c8565b005b6102d660048036038101906102d191906118c6565b61092a565b6040516102e39190611878565b60405180910390f35b61030660048036038101906103019190611c5f565b610967565b60405161031391906117c4565b60405180910390f35b6000600654905090565b60007f80ac58cd000000000000000000000000000000000000000000000000000000007bffffffffffffffffffffffffffffffffffffffffffffffffffffffff1916827bffffffffffffffffffffffffffffffffffffffffffffffffffffffff191614806103f157507f5b5e139f000000000000000000000000000000000000000000000000000000007bffffffffffffffffffffffffffffffffffffffffffffffffffffffff1916827bffffffffffffffffffffffffffffffffffffffffffffffffffffffff1916145b806104015750610400826109fb565b5b9050919050565b60606000805461041790611cce565b80601f016020809104026020016040519081016040528092919081815260200182805461044390611cce565b80156104905780601f1061046557610100808354040283529160200191610490565b820191906000526020600020905b81548152906001019060200180831161047357829003601f168201915b5050505050905090565b60006104a582610a65565b6004600083815260200190815260200160002060009054906101000a900473ffffffffffffffffffffffffffffffffffffffff169050919050565b60006104eb826106b6565b90508073ffffffffffffffffffffffffffffffffffffffff168373ffffffffffffffffffffffffffffffffffffffff16141561055c576040517f08c379a000000000000000000000000000000000000000000000000000000000815260040161055390611d72565b60405180910390fd5b8073ffffffffffffffffffffffffffffffffffffffff1661057b610ab0565b73ffffffffffffffffffffffffffffffffffffffff1614806105aa57506105a9816105a4610ab0565b610967565b5b6105e9576040517f08c379a00000000000000000000000000000000000000000000000000000000081526004016105e090611e04565b60405180910390fd5b6105f38383610ab8565b505050565b610609610603610ab0565b82610b71565b610648576040517f08c379a000000000000000000000000000000000000000000000000000000000815260040161063f90611e96565b60405180910390fd5b610653838383610c06565b505050565b61066f6007805461066890611cce565b9050610e6d565b6006600081548092919061068290611ee5565b919050555061069381600654610f06565b50565b6106b1838383604051806020016040528060008152506108c8565b505050565b6000806002600084815260200190815260200160002060009054906101000a900473ffffffffffffffffffffffffffffffffffffffff169050600073ffffffffffffffffffffffffffffffffffffffff168173ffffffffffffffffffffffffffffffffffffffff16141561075f576040517f08c379a000000000000000000000000000000000000000000000000000000000815260040161075690611f7a565b60405180910390fd5b80915050919050565b60008073ffffffffffffffffffffffffffffffffffffffff168273ffffffffffffffffffffffffffffffffffffffff1614156107d9576040517f08c379a00000000000000000000000000000000000000000000000000000000081526004016107d09061200c565b60405180910390fd5b600360008373ffffffffffffffffffffffffffffffffffffffff1673ffffffffffffffffffffffffffffffffffffffff168152602001908152602001600020549050919050565b60606001805461082f90611cce565b80601f016020809104026020016040519081016040528092919081815260200182805461085b90611cce565b80156108a85780601f1061087d576101008083540402835291602001916108a8565b820191906000526020600020905b81548152906001019060200180831161088b57829003601f168201915b5050505050905090565b6108c46108bd610ab0565b8383610f24565b5050565b6108d96108d3610ab0565b83610b71565b610918576040517f08c379a000000000000000000000000000000000000000000000000000000000815260040161090f90611e96565b60405180910390fd5b61092484848484611091565b50505050565b606061093582610a65565b6007610940836110ed565b604051602001610951929190612148565b6040516020818303038152906040529050919050565b6000600560008473ffffffffffffffffffffffffffffffffffffffff1673ffffffffffffffffffffffffffffffffffffffff16815260200190815260200160002060008373ffffffffffffffffffffffffffffffffffffffff1673ffffffffffffffffffffffffffffffffffffffff16815260200190815260200160002060009054906101000a900460ff16905092915050565b60007f01ffc9a7000000000000000000000000000000000000000000000000000000007bffffffffffffffffffffffffffffffffffffffffffffffffffffffff1916827bffffffffffffffffffffffffffffffffffffffffffffffffffffffff1916149050919050565b610a6e8161124e565b610aad576040517f08c379a0000000000000000000000000000000000000000000000000000000008152600401610aa490611f7a565b60405180910390fd5b50565b600033905090565b816004600083815260200190815260200160002060006101000a81548173ffffffffffffffffffffffffffffffffffffffff021916908373ffffffffffffffffffffffffffffffffffffffff160217905550808273ffffffffffffffffffffffffffffffffffffffff16610b2b836106b6565b73ffffffffffffffffffffffffffffffffffffffff167f8c5be1e5ebec7d5bd14f71427d1e84f3dd0314c0f7b2291e5b200ac8c7c3b92560405160405180910390a45050565b600080610b7d836106b6565b90508073ffffffffffffffffffffffffffffffffffffffff168473ffffffffffffffffffffffffffffffffffffffff161480610bbf5750610bbe8185610967565b5b80610bfd57508373ffffffffffffffffffffffffffffffffffffffff16610be58461049a565b73ffffffffffffffffffffffffffffffffffffffff16145b91505092915050565b8273ffffffffffffffffffffffffffffffffffffffff16610c26826106b6565b73ffffffffffffffffffffffffffffffffffffffff1614610c7c576040517f08c379a0000000000000000000000000000000000000000000000000000000008152600401610c73906121e9565b60405180910390fd5b600073ffffffffffffffffffffffffffffffffffffffff168273ffffffffffffffffffffffffffffffffffffffff161415610cec576040517f08c379a0000000000000000000000000000000000000000000000000000000008152600401610ce39061227b565b60405180910390fd5b610cf78383836112ba565b610d02600082610ab8565b6001600360008573ffffffffffffffffffffffffffffffffffffffff1673ffffffffffffffffffffffffffffffffffffffff1681526020019081526020016000206000828254610d52919061229b565b925050819055506001600360008473ffffffffffffffffffffffffffffffffffffffff1673ffffffffffffffffffffffffffffffffffffffff1681526020019081526020016000206000828254610da991906122cf565b92505081905550816002600083815260200190815260200160002060006101000a81548173ffffffffffffffffffffffffffffffffffffffff021916908373ffffffffffffffffffffffffffffffffffffffff160217905550808273ffffffffffffffffffffffffffffffffffffffff168473ffffffffffffffffffffffffffffffffffffffff167fddf252ad1be2c89b69c2b068fc378daa952ba7f163c4a11628f55a4df523b3ef60405160405180910390a4610e688383836112bf565b505050565b610f0381604051602401610e8191906116f5565b6040516020818303038152906040527ff5b1bba9000000000000000000000000000000000000000000000000000000007bffffffffffffffffffffffffffffffffffffffffffffffffffffffff19166020820180517bffffffffffffffffffffffffffffffffffffffffffffffffffffffff83818316178352505050506112c4565b50565b610f208282604051806020016040528060008152506112ed565b5050565b8173ffffffffffffffffffffffffffffffffffffffff168373ffffffffffffffffffffffffffffffffffffffff161415610f93576040517f08c379a0000000000000000000000000000000000000000000000000000000008152600401610f8a90612371565b60405180910390fd5b80600560008573ffffffffffffffffffffffffffffffffffffffff1673ffffffffffffffffffffffffffffffffffffffff16815260200190815260200160002060008473ffffffffffffffffffffffffffffffffffffffff1673ffffffffffffffffffffffffffffffffffffffff16815260200190815260200160002060006101000a81548160ff0219169083151502179055508173ffffffffffffffffffffffffffffffffffffffff168373ffffffffffffffffffffffffffffffffffffffff167f17307eab39ab6107e8899845ad3d59bd9653f200f220920489ca2b5937696c318360405161108491906117c4565b60405180910390a3505050565b61109c848484610c06565b6110a884848484611348565b6110e7576040517f08c379a00000000000000000000000000000000000000000000000000000000081526004016110de90612403565b60405180910390fd5b50505050565b60606000821415611135576040518060400160405280600181526020017f30000000000000000000000000000000000000000000000000000000000000008152509050611249565b600082905060005b6000821461116757808061115090611ee5565b915050600a826111609190612452565b915061113d565b60008167ffffffffffffffff81111561118357611182611ab1565b5b6040519080825280601f01601f1916602001820160405280156111b55781602001600182028036833780820191505090505b5090505b60008514611242576001826111ce919061229b565b9150600a856111dd9190612483565b60306111e991906122cf565b60f81b8183815181106111ff576111fe6124b4565b5b60200101907effffffffffffffffffffffffffffffffffffffffffffffffffffffffffffff1916908160001a905350600a8561123b9190612452565b94506111b9565b8093505050505b919050565b60008073ffffffffffffffffffffffffffffffffffffffff166002600084815260200190815260200160002060009054906101000a900473ffffffffffffffffffffffffffffffffffffffff1673ffffffffffffffffffffffffffffffffffffffff1614159050919050565b505050565b505050565b60008151905060006a636f6e736f6c652e6c6f679050602083016000808483855afa5050505050565b6112f783836114df565b6113046000848484611348565b611343576040517f08c379a000000000000000000000000000000000000000000000000000000000815260040161133a90612403565b60405180910390fd5b505050565b60006113698473ffffffffffffffffffffffffffffffffffffffff166116b9565b156114d2578373ffffffffffffffffffffffffffffffffffffffff1663150b7a02611392610ab0565b8786866040518563ffffffff1660e01b81526004016113b49493929190612538565b602060405180830381600087803b1580156113ce57600080fd5b505af19250505080156113ff57506040513d601f19601f820116820180604052508101906113fc9190612599565b60015b611482573d806000811461142f576040519150601f19603f3d011682016040523d82523d6000602084013e611434565b606091505b5060008151141561147a576040517f08c379a000000000000000000000000000000000000000000000000000000000815260040161147190612403565b60405180910390fd5b805181602001fd5b63150b7a0260e01b7bffffffffffffffffffffffffffffffffffffffffffffffffffffffff1916817bffffffffffffffffffffffffffffffffffffffffffffffffffffffff1916149150506114d7565b600190505b949350505050565b600073ffffffffffffffffffffffffffffffffffffffff168273ffffffffffffffffffffffffffffffffffffffff16141561154f576040517f08c379a000000000000000000000000000000000000000000000000000000000815260040161154690612612565b60405180910390fd5b6115588161124e565b15611598576040517f08c379a000000000000000000000000000000000000000000000000000000000815260040161158f9061267e565b60405180910390fd5b6115a4600083836112ba565b6001600360008473ffffffffffffffffffffffffffffffffffffffff1673ffffffffffffffffffffffffffffffffffffffff16815260200190815260200160002060008282546115f491906122cf565b92505081905550816002600083815260200190815260200160002060006101000a81548173ffffffffffffffffffffffffffffffffffffffff021916908373ffffffffffffffffffffffffffffffffffffffff160217905550808273ffffffffffffffffffffffffffffffffffffffff16600073ffffffffffffffffffffffffffffffffffffffff167fddf252ad1be2c89b69c2b068fc378daa952ba7f163c4a11628f55a4df523b3ef60405160405180910390a46116b5600083836112bf565b5050565b6000808273ffffffffffffffffffffffffffffffffffffffff163b119050919050565b6000819050919050565b6116ef816116dc565b82525050565b600060208201905061170a60008301846116e6565b92915050565b6000604051905090565b600080fd5b600080fd5b60007fffffffff0000000000000000000000000000000000000000000000000000000082169050919050565b61175981611724565b811461176457600080fd5b50565b60008135905061177681611750565b92915050565b6000602082840312156117925761179161171a565b5b60006117a084828501611767565b91505092915050565b60008115159050919050565b6117be816117a9565b82525050565b60006020820190506117d960008301846117b5565b92915050565b600081519050919050565b600082825260208201905092915050565b60005b838110156118195780820151818401526020810190506117fe565b83811115611828576000848401525b50505050565b6000601f19601f8301169050919050565b600061184a826117df565b61185481856117ea565b93506118648185602086016117fb565b61186d8161182e565b840191505092915050565b60006020820190508181036000830152611892818461183f565b905092915050565b6118a3816116dc565b81146118ae57600080fd5b50565b6000813590506118c08161189a565b92915050565b6000602082840312156118dc576118db61171a565b5b60006118ea848285016118b1565b91505092915050565b600073ffffffffffffffffffffffffffffffffffffffff82169050919050565b600061191e826118f3565b9050919050565b61192e81611913565b82525050565b60006020820190506119496000830184611925565b92915050565b61195881611913565b811461196357600080fd5b50565b6000813590506119758161194f565b92915050565b600080604083850312156119925761199161171a565b5b60006119a085828601611966565b92505060206119b1858286016118b1565b9150509250929050565b6000806000606084860312156119d4576119d361171a565b5b60006119e286828701611966565b93505060206119f386828701611966565b9250506040611a04868287016118b1565b9150509250925092565b600060208284031215611a2457611a2361171a565b5b6000611a3284828501611966565b91505092915050565b611a44816117a9565b8114611a4f57600080fd5b50565b600081359050611a6181611a3b565b92915050565b60008060408385031215611a7e57611a7d61171a565b5b6000611a8c85828601611966565b9250506020611a9d85828601611a52565b9150509250929050565b600080fd5b600080fd5b7f4e487b7100000000000000000000000000000000000000000000000000000000600052604160045260246000fd5b611ae98261182e565b810181811067ffffffffffffffff82111715611b0857611b07611ab1565b5b80604052505050565b6000611b1b611710565b9050611b278282611ae0565b919050565b600067ffffffffffffffff821115611b4757611b46611ab1565b5b611b508261182e565b9050602081019050919050565b82818337600083830152505050565b6000611b7f611b7a84611b2c565b611b11565b905082815260208101848484011115611b9b57611b9a611aac565b5b611ba6848285611b5d565b509392505050565b600082601f830112611bc357611bc2611aa7565b5b8135611bd3848260208601611b6c565b91505092915050565b60008060008060808587031215611bf657611bf561171a565b5b6000611c0487828801611966565b9450506020611c1587828801611966565b9350506040611c26878288016118b1565b925050606085013567ffffffffffffffff811115611c4757611c4661171f565b5b611c5387828801611bae565b91505092959194509250565b60008060408385031215611c7657611c7561171a565b5b6000611c8485828601611966565b9250506020611c9585828601611966565b9150509250929050565b7f4e487b7100000000000000000000000000000000000000000000000000000000600052602260045260246000fd5b60006002820490506001821680611ce657607f821691505b60208210811415611cfa57611cf9611c9f565b5b50919050565b7f4552433732313a20617070726f76616c20746f2063757272656e74206f776e6560008201527f7200000000000000000000000000000000000000000000000000000000000000602082015250565b6000611d5c6021836117ea565b9150611d6782611d00565b604082019050919050565b60006020820190508181036000830152611d8b81611d4f565b9050919050565b7f4552433732313a20617070726f76652063616c6c6572206973206e6f7420746f60008201527f6b656e206f776e6572206e6f7220617070726f76656420666f7220616c6c0000602082015250565b6000611dee603e836117ea565b9150611df982611d92565b604082019050919050565b60006020820190508181036000830152611e1d81611de1565b9050919050565b7f4552433732313a2063616c6c6572206973206e6f7420746f6b656e206f776e6560008201527f72206e6f7220617070726f766564000000000000000000000000000000000000602082015250565b6000611e80602e836117ea565b9150611e8b82611e24565b604082019050919050565b60006020820190508181036000830152611eaf81611e73565b9050919050565b7f4e487b7100000000000000000000000000000000000000000000000000000000600052601160045260246000fd5b6000611ef0826116dc565b91507fffffffffffffffffffffffffffffffffffffffffffffffffffffffffffffffff821415611f2357611f22611eb6565b5b600182019050919050565b7f4552433732313a20696e76616c696420746f6b656e2049440000000000000000600082015250565b6000611f646018836117ea565b9150611f6f82611f2e565b602082019050919050565b60006020820190508181036000830152611f9381611f57565b9050919050565b7f4552433732313a2061646472657373207a65726f206973206e6f74206120766160008201527f6c6964206f776e65720000000000000000000000000000000000000000000000602082015250565b6000611ff66029836117ea565b915061200182611f9a565b604082019050919050565b6000602082019050818103600083015261202581611fe9565b9050919050565b600081905092915050565b60008190508160005260206000209050919050565b6000815461205981611cce565b612063818661202c565b9450600182166000811461207e576001811461208f576120c2565b60ff198316865281860193506120c2565b61209885612037565b60005b838110156120ba5781548189015260018201915060208101905061209b565b838801955050505b50505092915050565b60006120d6826117df565b6120e0818561202c565b93506120f08185602086016117fb565b80840191505092915050565b7f2e6a736f6e000000000000000000000000000000000000000000000000000000600082015250565b600061213260058361202c565b915061213d826120fc565b600582019050919050565b6000612154828561204c565b915061216082846120cb565b915061216b82612125565b91508190509392505050565b7f4552433732313a207472616e736665722066726f6d20696e636f72726563742060008201527f6f776e6572000000000000000000000000000000000000000000000000000000602082015250565b60006121d36025836117ea565b91506121de82612177565b604082019050919050565b60006020820190508181036000830152612202816121c6565b9050919050565b7f4552433732313a207472616e7366657220746f20746865207a65726f2061646460008201527f7265737300000000000000000000000000000000000000000000000000000000602082015250565b60006122656024836117ea565b915061227082612209565b604082019050919050565b6000602082019050818103600083015261229481612258565b9050919050565b60006122a6826116dc565b91506122b1836116dc565b9250828210156122c4576122c3611eb6565b5b828203905092915050565b60006122da826116dc565b91506122e5836116dc565b9250827fffffffffffffffffffffffffffffffffffffffffffffffffffffffffffffffff0382111561231a57612319611eb6565b5b828201905092915050565b7f4552433732313a20617070726f766520746f2063616c6c657200000000000000600082015250565b600061235b6019836117ea565b915061236682612325565b602082019050919050565b6000602082019050818103600083015261238a8161234e565b9050919050565b7f4552433732313a207472616e7366657220746f206e6f6e20455243373231526560008201527f63656976657220696d706c656d656e7465720000000000000000000000000000602082015250565b60006123ed6032836117ea565b91506123f882612391565b604082019050919050565b6000602082019050818103600083015261241c816123e0565b9050919050565b7f4e487b7100000000000000000000000000000000000000000000000000000000600052601260045260246000fd5b600061245d826116dc565b9150612468836116dc565b92508261247857612477612423565b5b828204905092915050565b600061248e826116dc565b9150612499836116dc565b9250826124a9576124a8612423565b5b828206905092915050565b7f4e487b7100000000000000000000000000000000000000000000000000000000600052603260045260246000fd5b600081519050919050565b600082825260208201905092915050565b600061250a826124e3565b61251481856124ee565b93506125248185602086016117fb565b61252d8161182e565b840191505092915050565b600060808201905061254d6000830187611925565b61255a6020830186611925565b61256760408301856116e6565b818103606083015261257981846124ff565b905095945050505050565b60008151905061259381611750565b92915050565b6000602082840312156125af576125ae61171a565b5b60006125bd84828501612584565b91505092915050565b7f4552433732313a206d696e7420746f20746865207a65726f2061646472657373600082015250565b60006125fc6020836117ea565b9150612607826125c6565b602082019050919050565b6000602082019050818103600083015261262b816125ef565b9050919050565b7f4552433732313a20746f6b656e20616c7265616479206d696e74656400000000600082015250565b6000612668601c836117ea565b915061267382612632565b602082019050919050565b600060208201905081810360008301526126978161265b565b905091905056fea2646970667358221220f00214f419841ecf5bd3fc0dd64ca779704b4379c4c08a6f89a827a057068fa264736f6c63430008090033",
  "devdoc": {
    "kind": "dev",
    "methods": {
      "approve(address,uint256)": {
        "details": "See {IERC721-approve}."
      },
      "balanceOf(address)": {
        "details": "See {IERC721-balanceOf}."
      },
      "getApproved(uint256)": {
        "details": "See {IERC721-getApproved}."
      },
      "isApprovedForAll(address,address)": {
        "details": "See {IERC721-isApprovedForAll}."
      },
      "name()": {
        "details": "See {IERC721Metadata-name}."
      },
      "ownerOf(uint256)": {
        "details": "See {IERC721-ownerOf}."
      },
      "safeTransferFrom(address,address,uint256)": {
        "details": "See {IERC721-safeTransferFrom}."
      },
      "safeTransferFrom(address,address,uint256,bytes)": {
        "details": "See {IERC721-safeTransferFrom}."
      },
      "setApprovalForAll(address,bool)": {
        "details": "See {IERC721-setApprovalForAll}."
      },
      "supportsInterface(bytes4)": {
        "details": "See {IERC165-supportsInterface}."
      },
      "symbol()": {
        "details": "See {IERC721Metadata-symbol}."
      },
      "tokenURI(uint256)": {
        "details": "See {IERC721Metadata-tokenURI}."
      },
      "transferFrom(address,address,uint256)": {
        "details": "See {IERC721-transferFrom}."
      }
    },
    "version": 1
  },
  "userdoc": {
    "kind": "user",
    "methods": {},
    "version": 1
  },
  "storageLayout": {
    "storage": [
      {
        "astId": 25,
        "contract": "contracts/StakeableNFT.sol:StakeableNFT",
        "label": "_name",
        "offset": 0,
        "slot": "0",
        "type": "t_string_storage"
      },
      {
        "astId": 27,
        "contract": "contracts/StakeableNFT.sol:StakeableNFT",
        "label": "_symbol",
        "offset": 0,
        "slot": "1",
        "type": "t_string_storage"
      },
      {
        "astId": 31,
        "contract": "contracts/StakeableNFT.sol:StakeableNFT",
        "label": "_owners",
        "offset": 0,
        "slot": "2",
        "type": "t_mapping(t_uint256,t_address)"
      },
      {
        "astId": 35,
        "contract": "contracts/StakeableNFT.sol:StakeableNFT",
        "label": "_balances",
        "offset": 0,
        "slot": "3",
        "type": "t_mapping(t_address,t_uint256)"
      },
      {
        "astId": 39,
        "contract": "contracts/StakeableNFT.sol:StakeableNFT",
        "label": "_tokenApprovals",
        "offset": 0,
        "slot": "4",
        "type": "t_mapping(t_uint256,t_address)"
      },
      {
        "astId": 45,
        "contract": "contracts/StakeableNFT.sol:StakeableNFT",
        "label": "_operatorApprovals",
        "offset": 0,
        "slot": "5",
        "type": "t_mapping(t_address,t_mapping(t_address,t_bool))"
      },
      {
        "astId": 1618,
        "contract": "contracts/StakeableNFT.sol:StakeableNFT",
        "label": "s_tokenId",
        "offset": 0,
        "slot": "6",
        "type": "t_uint256"
      },
      {
        "astId": 1620,
        "contract": "contracts/StakeableNFT.sol:StakeableNFT",
        "label": "s_baseUri",
        "offset": 0,
        "slot": "7",
        "type": "t_string_storage"
      }
    ],
    "types": {
      "t_address": {
        "encoding": "inplace",
        "label": "address",
        "numberOfBytes": "20"
      },
      "t_bool": {
        "encoding": "inplace",
        "label": "bool",
        "numberOfBytes": "1"
      },
      "t_mapping(t_address,t_bool)": {
        "encoding": "mapping",
        "key": "t_address",
        "label": "mapping(address => bool)",
        "numberOfBytes": "32",
        "value": "t_bool"
      },
      "t_mapping(t_address,t_mapping(t_address,t_bool))": {
        "encoding": "mapping",
        "key": "t_address",
        "label": "mapping(address => mapping(address => bool))",
        "numberOfBytes": "32",
        "value": "t_mapping(t_address,t_bool)"
      },
      "t_mapping(t_address,t_uint256)": {
        "encoding": "mapping",
        "key": "t_address",
        "label": "mapping(address => uint256)",
        "numberOfBytes": "32",
        "value": "t_uint256"
      },
      "t_mapping(t_uint256,t_address)": {
        "encoding": "mapping",
        "key": "t_uint256",
        "label": "mapping(uint256 => address)",
        "numberOfBytes": "32",
        "value": "t_address"
      },
      "t_string_storage": {
        "encoding": "bytes",
        "label": "string",
        "numberOfBytes": "32"
      },
      "t_uint256": {
        "encoding": "inplace",
        "label": "uint256",
        "numberOfBytes": "32"
      }
    }
  }
}